:100000000C9458000C9480000C9480000C94800098
:100010000C9480000C9480000C9480000C94800060
:100020000C9480000C9480000C9480000C94800050
:100030000C9480000C9480000C9480000C94800040
:100040000C94BD020C9480000C948B020C946502FD
:100050000C9480000C9480000C9480000C94800020
:100060000C9480000C948000000000002300260007
:10007000290004040404040404040202020202022B
:10008000030303030303010204081020408001025C
:1000900004081020010204081020000000080002DB
:1000A00001000003040700000000000000003E04FF
:1000B00011241FBECFEFD8E0DEBFCDBF12E0A0E01D
:1000C000B1E0E4E3F9E002C005900D92A230B1077F
:1000D000D9F722E0A2E0B2E001C01D92A83AB2072F
:1000E000E1F710E0C8E5D0E004C02197FE010E94CE
:1000F0008D04C735D107C9F70E9407030C949804F3
:100100000C940000CF92DF92EF92FF920F931F9317
:10011000CF93DF936C017A018B01C0E0D0E0CE1564
:10012000DF0581F0D8016D918D01D601ED91FC9133
:100130000190F081E02DC6010995892B11F02196DF
:10014000EECF7E01C701DF91CF911F910F91FF90FC
:10015000EF90DF90CF900895089580E090E00895AB
:10016000FC01538D448D252F30E0842F90E0821BBD
:10017000930B541710F0CF96089501970895FC0142
:10018000918D828D981761F0828DDF01A80FB11DCE
:100190005D968C91928D9F5F9F73928F90E00895F2
:1001A0008FEF9FEF0895FC01918D828D981731F0AC
:1001B000828DE80FF11D858D90E008958FEF9FEF00
:1001C0000895FC01918D228D892F90E0805C9F4FD6
:1001D000821B91098F73992708958BE092E00E940A
:1001E000E10021E0892B09F420E0822F0895FC0131
:1001F000848DDF01A80FB11DA35ABF4F2C91848DB0
:1002000090E001968F739927848FA689B7892C93E4
:10021000A089B1898C91837080648C93938D848D37
:10022000981306C00288F389E02D80818F7D80833A
:100230000895EF92FF920F931F93CF93DF93EC01FA
:1002400081E0888F9B8D8C8D981305C0E889F98992
:10025000808185FD26C0F62E0B8D10E00F5F1F4FAD
:100260000F731127E02E8C8DE8120CC00FB607FC1F
:10027000FACFE889F989808185FFF5CFCE010E9408
:10028000F700F1CF8B8DFE01E80FF11DE35AFF4F10
:10029000F0829FB7F8940B8FEA89FB898081806296
:1002A0000AC09FB7F894EE89FF896083E889F989CD
:1002B00080818370806480839FBF81E090E0DF91C4
:1002C000CF911F910F91FF90EF900895CF93DF93FF
:1002D000EC01888D8823C9F0EA89FB89808185FD3E
:1002E00005C0A889B9898C9186FD0FC00FB607FC9F
:1002F000F5CF808185FFF2CFA889B9898C9185FFE0
:10030000EDCFCE010E94F700E7CFDF91CF910895A6
:1003100080E090E0892B29F00E94ED0081110C947F
:10032000000008958E3008F08E50877080648093AE
:100330007C0080917A00806480937A0080917A00BA
:1003400086FDFCCF809178009091790008953FB7A9
:10035000F8948091070290910802A0910902B0914F
:100360000A0226B5A89B05C02F3F19F00196A11DD2
:10037000B11D3FBFBA2FA92F982F8827820F911D3B
:10038000A11DB11DBC01CD0142E0660F771F881F82
:10039000991F4A95D1F70895009769F0FC010190E3
:1003A0000020E9F73197AF01481B590BBC018BE0E6
:1003B00092E00C94820080E090E00895CF93DF9368
:1003C00082E191E00E94CC01EC0184E191E00E9485
:1003D000CC018C0F9D1FDF91CF9108958F929F923A
:1003E000AF92BF92CF92DF92EF92FF920F931F9343
:1003F000CF93DF93CDB7DEB7A1970FB6F894DEBFEA
:100400000FBECDBF6C01990FEE08FF08F7FE2BC0A1
:100410006DE28BE092E00E9419018C0122273327C4
:10042000A9012C193D094E095F0919A2CE01819637
:100430007C019AE0892E912CA12CB12CCA01B90122
:10044000A50194010E946B04605DF70162937F0136
:10045000211531054105510589F7CF010E94CC01D5
:10046000800F911F1DC0A701960119A28E010F5D7B
:100470001F4F8AE0C82ED12CE12CF12CCA01B90102
:10048000A70196010E946B04605DF80162938F01E1
:10049000211531054105510589F7CF010E94CC0195
:1004A000A1960FB6F894DEBF0FBECDBFDF91CF91FE
:1004B0001F910F91FF90EF90DF90CF90BF90AF9082
:1004C0009F908F9008950E9493041F920F920FB6F1
:1004D0000F9211242F933F934F935F936F937F93CA
:1004E0008F939F93AF93BF93EF93FF938BE092E033
:1004F0000E94F700FF91EF91BF91AF919F918F9173
:100500007F916F915F914F913F912F910F900FBE0F
:100510000F901F9018951F920F920FB60F921124F3
:100520002F938F939F93EF93FF93E0911B02F09192
:100530001C028081E0912102F091220282FD12C012
:100540009081809124028F5F8F7320912502821702
:1005500051F0E0912402F0E0E55FFD4F958F80932C
:10056000240201C08081FF91EF919F918F912F9183
:100570000F900FBE0F901F9018951F920F920FB6FD
:100580000F9211242F933F938F939F93AF93BF9319
:100590008091030290910402A0910502B09106029D
:1005A0003091020223E0230F2D3720F40196A11D84
:1005B000B11D05C026E8230F0296A11DB11D209391
:1005C00002028093030290930402A0930502B09369
:1005D00006028091070290910802A0910902B09151
:1005E0000A020196A11DB11D809307029093080293
:1005F000A0930902B0930A02BF91AF919F918F918E
:100600003F912F910F900FBE0F901F9018957894E7
:1006100084B5826084BD84B5816084BD85B5826007
:1006200085BD85B5816085BD80916E0081608093B8
:100630006E00109281008091810082608093810021
:100640008091810081608093810080918000816031
:10065000809380008091B10084608093B10080918C
:10066000B00081608093B00080917A0084608093B4
:100670007A0080917A00826080937A0080917A007B
:10068000816080937A0080917A00806880937A00FC
:100690001092C100E0911B02F0911C0282E0808365
:1006A000E0911702F09118021082E0911902F09186
:1006B0001A0280E1808310922302E0911F02F091E0
:1006C000200286E08083E0911D02F0911E0280816D
:1006D00080618083E0911D02F0911E02808188601C
:1006E0008083E0911D02F0911E02808180688083EA
:1006F000E0911D02F0911E0280818F7D80832EE9A2
:10070000422E20E0522E3AE8632E30E0732EC6E7E8
:10071000D0E08EE00E9492014C018FE00E94920195
:100720005C01F2018491F3012491FE0134913323A1
:1007300009F43AC0882341F1833099F040F48130C4
:10074000B1F0823009F594B59F7D94BD1DC087300E
:1007500091F08830A1F08430B9F4809180008F7DD1
:1007600003C0809180008F77809380000DC084B596
:100770008F7784BD09C09091B0009F7703C090919E
:10078000B0009F7D9093B000E32FF0E0EE0FFF1FCD
:10079000E859FF4FA591B4918C91822391E0312CBF
:1007A00009F490E0292E02C0212C312C80E10E9416
:1007B00092016C0181E10E9492017C0182E10E9420
:1007C00092018C0187E191E00E94CC01C4010E945A
:1007D000EE010E94DE018CE491E00E94CC01C50193
:1007E0000E94EE010E94DE0185E891E00E94CC01AA
:1007F000C1010E94EE010E94DE018DEB91E00E949A
:10080000CC01C6010E94EE0185EF91E00E94CC016F
:10081000C7010E94EE018BEF91E00E94CC01C8015C
:100820000E94EE010E94DE010E94A7016B017C0183
:1008300088EE882E83E0982EA12CB12C0E94A7016F
:10084000DC01CB018C199D09AE09BF09883E93409C
:10085000A105B10598F3F1E08F1A9108A108B1083C
:1008600028EEC20E23E0D21EE11CF11C811491047B
:10087000A104B10419F70E9488014BCFEBE0F2E02C
:100880001382128288EE93E0A0E0B0E08483958327
:10089000A683B78384E091E09183808385EC90E028
:1008A0009587848784EC90E09787868780EC90E03A
:1008B000918B808B81EC90E0938B828B82EC90E02B
:1008C000958B848B86EC90E0978B868B118E128EA5
:1008D000138E148E0895A1E21A2EAA1BBB1BFD01D4
:1008E0000DC0AA1FBB1FEE1FFF1FA217B307E4070F
:1008F000F50720F0A21BB30BE40BF50B661F771F67
:10090000881F991F1A9469F7609570958095909546
:100910009B01AC01BD01CF010895EE0FFF1F0590B3
:10092000F491E02D099481E090E0F8940C949804FF
:04093000F894FFCF69
:100934000000000019018200B0006601E100BF0060
:10094400D3007D000D0A007B226465766963655FD0
:100954006964223A2261726475696E6F2D30303198
:10096400222C2273656E736F72223A226C69676857
:1009740074222C2276616C7565223A007B226465B0
:10098400766963655F6964223A2261726475696E8F
:100994006F2D303031222C2273656E736F72223AC0
:1009A4002274656D7065726174757265222C227291
:1009B4006177223A007B226465766963655F6964C6
:1009C400223A2261726475696E6F2D303031222CA7
:1009D4002273656E736F72223A226D61676E65745D
:1009E4006963222C2276616C7565223A007B22644D
:1009F40065766963655F6964223A22617264756928
:100A04006E6F2D303031222C2273656E736F72221B
:100A14003A22616363656C65726174696F6E222C3E
:100A24002278223A002C2279223A002C227A223A85
:020A34000000C0
:00000001FF
